{
  "contractName": "PropertyRegistration",
  "abi": [
    {
      "inputs": [],
      "payable": false,
      "stateMutability": "nonpayable",
      "type": "constructor"
    },
    {
      "anonymous": false,
      "inputs": [
        {
          "indexed": false,
          "internalType": "uint256",
          "name": "propertyID",
          "type": "uint256"
        }
      ],
      "name": "registeredProperty",
      "type": "event"
    },
    {
      "anonymous": false,
      "inputs": [
        {
          "indexed": false,
          "internalType": "uint256",
          "name": "propertyID",
          "type": "uint256"
        }
      ],
      "name": "soldProperty",
      "type": "event"
    },
    {
      "constant": false,
      "inputs": [
        {
          "internalType": "string",
          "name": "_ownerName",
          "type": "string"
        },
        {
          "internalType": "uint64",
          "name": "_ownerAdhaar",
          "type": "uint64"
        },
        {
          "internalType": "string",
          "name": "_area",
          "type": "string"
        },
        {
          "internalType": "string",
          "name": "_district",
          "type": "string"
        },
        {
          "internalType": "string",
          "name": "_state",
          "type": "string"
        },
        {
          "internalType": "uint256",
          "name": "_sqFeet",
          "type": "uint256"
        }
      ],
      "name": "registerProperty",
      "outputs": [],
      "payable": false,
      "stateMutability": "nonpayable",
      "type": "function"
    },
    {
      "constant": false,
      "inputs": [
        {
          "internalType": "uint256",
          "name": "_propertyID",
          "type": "uint256"
        },
        {
          "internalType": "string",
          "name": "_newOwnerName",
          "type": "string"
        },
        {
          "internalType": "uint64",
          "name": "_newOwnerAdhaar",
          "type": "uint64"
        },
        {
          "internalType": "uint256",
          "name": "_sellingSqFeet",
          "type": "uint256"
        }
      ],
      "name": "sellProperty",
      "outputs": [],
      "payable": false,
      "stateMutability": "nonpayable",
      "type": "function"
    },
    {
      "constant": true,
      "inputs": [
        {
          "internalType": "uint256",
          "name": "_propertyID",
          "type": "uint256"
        }
      ],
      "name": "getPropertyDetails",
      "outputs": [
        {
          "internalType": "string",
          "name": "",
          "type": "string"
        },
        {
          "internalType": "uint64",
          "name": "",
          "type": "uint64"
        },
        {
          "internalType": "string",
          "name": "",
          "type": "string"
        },
        {
          "internalType": "string",
          "name": "",
          "type": "string"
        },
        {
          "internalType": "string",
          "name": "",
          "type": "string"
        },
        {
          "internalType": "uint256",
          "name": "",
          "type": "uint256"
        }
      ],
      "payable": false,
      "stateMutability": "view",
      "type": "function"
    }
  ],
  "bytecode": "0x608060405234801561001057600080fd5b50336000806101000a81548173ffffffffffffffffffffffffffffffffffffffff021916908373ffffffffffffffffffffffffffffffffffffffff160217905550610fd7806100606000396000f3fe608060405234801561001057600080fd5b50600436106100415760003560e01c8063126dbe4314610046578063e285d15d14610253578063e466d86d146104f1575b600080fd5b6100726004803603602081101561005c57600080fd5b81019080803590602001909291905050506105d4565b60405180806020018767ffffffffffffffff1667ffffffffffffffff16815260200180602001806020018060200186815260200185810385528b818151815260200191508051906020019080838360005b838110156100de5780820151818401526020810190506100c3565b50505050905090810190601f16801561010b5780820380516001836020036101000a031916815260200191505b50858103845289818151815260200191508051906020019080838360005b83811015610144578082015181840152602081019050610129565b50505050905090810190601f1680156101715780820380516001836020036101000a031916815260200191505b50858103835288818151815260200191508051906020019080838360005b838110156101aa57808201518184015260208101905061018f565b50505050905090810190601f1680156101d75780820380516001836020036101000a031916815260200191505b50858103825287818151815260200191508051906020019080838360005b838110156102105780820151818401526020810190506101f5565b50505050905090810190601f16801561023d5780820380516001836020036101000a031916815260200191505b509a505050505050505050505060405180910390f35b6104ef600480360360c081101561026957600080fd5b810190808035906020019064010000000081111561028657600080fd5b82018360208201111561029857600080fd5b803590602001918460018302840111640100000000831117156102ba57600080fd5b91908080601f016020809104026020016040519081016040528093929190818152602001838380828437600081840152601f19601f820116905080830192505050505050509192919290803567ffffffffffffffff1690602001909291908035906020019064010000000081111561033157600080fd5b82018360208201111561034357600080fd5b8035906020019184600183028401116401000000008311171561036557600080fd5b91908080601f016020809104026020016040519081016040528093929190818152602001838380828437600081840152601f19601f820116905080830192505050505050509192919290803590602001906401000000008111156103c857600080fd5b8201836020820111156103da57600080fd5b803590602001918460018302840111640100000000831117156103fc57600080fd5b91908080601f016020809104026020016040519081016040528093929190818152602001838380828437600081840152601f19601f8201169050808301925050505050505091929192908035906020019064010000000081111561045f57600080fd5b82018360208201111561047157600080fd5b8035906020019184600183028401116401000000008311171561049357600080fd5b91908080601f016020809104026020016040519081016040528093929190818152602001838380828437600081840152601f19601f82011690508083019250505050505050919291929080359060200190929190505050610916565b005b6105d26004803603608081101561050757600080fd5b81019080803590602001909291908035906020019064010000000081111561052e57600080fd5b82018360208201111561054057600080fd5b8035906020019184600183028401116401000000008311171561056257600080fd5b91908080601f016020809104026020016040519081016040528093929190818152602001838380828437600081840152601f19601f820116905080830192505050505050509192919290803567ffffffffffffffff16906020019092919080359060200190929190505050610b06565b005b60606000606080606060006060600160008981526020019081526020016000206000018054600181600116156101000203166002900480601f01602080910402602001604051908101604052809291908181526020018280546001816001161561010002031660029004801561068b5780601f106106605761010080835404028352916020019161068b565b820191906000526020600020905b81548152906001019060200180831161066e57829003601f168201915b505050505090506000600160008a815260200190815260200160002060010160009054906101000a900467ffffffffffffffff1690506060600160008b81526020019081526020016000206003018054600181600116156101000203166002900480601f01602080910402602001604051908101604052809291908181526020018280546001816001161561010002031660029004801561076d5780601f106107425761010080835404028352916020019161076d565b820191906000526020600020905b81548152906001019060200180831161075057829003601f168201915b505050505090506060600160008c81526020019081526020016000206004018054600181600116156101000203166002900480601f0160208091040260200160405190810160405280929190818152602001828054600181600116156101000203166002900480156108205780601f106107f557610100808354040283529160200191610820565b820191906000526020600020905b81548152906001019060200180831161080357829003601f168201915b505050505090506060600160008d81526020019081526020016000206005018054600181600116156101000203166002900480601f0160208091040260200160405190810160405280929190818152602001828054600181600116156101000203166002900480156108d35780601f106108a8576101008083540402835291602001916108d3565b820191906000526020600020905b8154815290600101906020018083116108b657829003601f168201915b505050505090506000600160008e81526020019081526020016000206006015490508585858585859b509b509b509b509b509b5050505050505091939550919395565b6000809054906101000a900473ffffffffffffffffffffffffffffffffffffffff1673ffffffffffffffffffffffffffffffffffffffff163373ffffffffffffffffffffffffffffffffffffffff161461096f57600080fd5b600061097f878787878787610cfd565b905060006001600083815260200190815260200160002060010160009054906101000a900467ffffffffffffffff1667ffffffffffffffff16146109c257600080fd5b866001600083815260200190815260200160002060000190805190602001906109ec929190610eb5565b50856001600083815260200190815260200160002060010160006101000a81548167ffffffffffffffff021916908367ffffffffffffffff16021790555084600160008381526020019081526020016000206003019080519060200190610a54929190610eb5565b5083600160008381526020019081526020016000206004019080519060200190610a7f929190610eb5565b5082600160008381526020019081526020016000206005019080519060200190610aaa929190610eb5565b508160016000838152602001908152602001600020600601819055507f34468afe2b09bead268d849002d447c47019dc7ebbe257fc7d1bc66039f73d13816040518082815260200191505060405180910390a150505050505050565b6000809054906101000a900473ffffffffffffffffffffffffffffffffffffffff1673ffffffffffffffffffffffffffffffffffffffff163373ffffffffffffffffffffffffffffffffffffffff1614610b5f57600080fd5b60006001600086815260200190815260200160002060010160009054906101000a900467ffffffffffffffff1667ffffffffffffffff1614158015610bba575080600160008681526020019081526020016000206006015410155b610bc357600080fd5b6060600060608060606000610bd78a6105d4565b955095509550955095509550600160008b815260200190815260200160002060060154871415610c1457610c0f898986868686610916565b610c39565b60008782039050610c298a8a8787878d610916565b610c37878787878786610916565b505b600160008b815260200190815260200160002060008082016000610c5d9190610f35565b6001820160006101000a81549067ffffffffffffffff02191690556002820160009055600382016000610c909190610f35565b600482016000610ca09190610f35565b600582016000610cb09190610f35565b600682016000905550507fe788037f2049860b63ca08a512802fba810795dc36e8ef4e5cc0e04df8b61c9f8a6040518082815260200191505060405180910390a150505050505050505050565b60008066038d7ea4c680008888888888886040516020018087805190602001908083835b60208310610d445780518252602082019150602081019050602083039250610d21565b6001836020036101000a0380198251168184511680821785525050505050509050018667ffffffffffffffff1667ffffffffffffffff1660c01b815260080185805190602001908083835b60208310610db25780518252602082019150602081019050602083039250610d8f565b6001836020036101000a03801982511681845116808217855250505050505090500184805190602001908083835b60208310610e035780518252602082019150602081019050602083039250610de0565b6001836020036101000a03801982511681845116808217855250505050505090500183805190602001908083835b60208310610e545780518252602082019150602081019050602083039250610e31565b6001836020036101000a03801982511681845116808217855250505050505090500182815260200196505050505050506040516020818303038152906040528051906020012060001c81610ea457fe5b069050809150509695505050505050565b828054600181600116156101000203166002900490600052602060002090601f016020900481019282601f10610ef657805160ff1916838001178555610f24565b82800160010185558215610f24579182015b82811115610f23578251825591602001919060010190610f08565b5b509050610f319190610f7d565b5090565b50805460018160011615610100020316600290046000825580601f10610f5b5750610f7a565b601f016020900490600052602060002090810190610f799190610f7d565b5b50565b610f9f91905b80821115610f9b576000816000905550600101610f83565b5090565b9056fea265627a7a72315820119d3b532be2f705d915b7ced1ee026ce2416e2b3ad8c3e98cfe15d8538c78e664736f6c63430005100032",
  "source": "//SPDX-License-Identifier: UNLICENSED\r\npragma solidity >0.4.16;\r\ncontract PropertyRegistration {\r\n    address chairPerson;\r\n    \r\n    struct propertyDetails {\r\n        string ownerName;\r\n        uint64 onwerAdhaar;\r\n        uint propertyID;\r\n        string area;\r\n        string district;\r\n        string state;\r\n        uint sqFeet;\r\n    } \r\n    \r\n    event registeredProperty(uint propertyID);\r\n    event soldProperty(uint propertyID);\r\n    \r\n    mapping(uint => propertyDetails) property;\r\n    \r\n    constructor() public {\r\n        chairPerson = msg.sender;\r\n    } \r\n    \r\n    modifier onlyChairperson() {\r\n        require(msg.sender == chairPerson);\r\n        _;\r\n    }\r\n    \r\n    function registerProperty(string memory _ownerName,uint64 _ownerAdhaar,string memory _area,string memory _district,string memory _state,uint _sqFeet) public onlyChairperson {\r\n        uint _propertyID = getPropertyDetailsHash(_ownerName,_ownerAdhaar,_area,_district,_state,_sqFeet);\r\n        require(property[_propertyID].onwerAdhaar == 0);\r\n        property[_propertyID].ownerName = _ownerName;\r\n        property[_propertyID].onwerAdhaar = _ownerAdhaar;        \r\n        property[_propertyID].area = _area;\r\n        property[_propertyID].district = _district;\r\n        property[_propertyID].state = _state;\r\n        property[_propertyID].sqFeet = _sqFeet;        \r\n        emit registeredProperty(_propertyID);\r\n    }\r\n    function getPropertyDetailsHash(string memory _ownerName,uint64 _ownerAdhaar,string memory _area,string memory _district,string memory _state,uint _sqFeet) internal pure returns (uint) {\r\n        uint hash = uint(keccak256(abi.encodePacked(_ownerName,_ownerAdhaar,_area,_district,_state,_sqFeet)))%1000000000000000;\r\n        return hash;\r\n    }\r\n    function sellProperty(uint _propertyID,string memory _newOwnerName,uint64 _newOwnerAdhaar,uint _sellingSqFeet) public onlyChairperson {\r\n        require((property[_propertyID].onwerAdhaar != 0) && (property[_propertyID].sqFeet >= _sellingSqFeet));     \r\n        (string memory ownerName,uint64 ownerAdhaar,string memory area,string memory district,string memory state,uint sqFeet) = getPropertyDetails(_propertyID);   \r\n        if(_sellingSqFeet == property[_propertyID].sqFeet) {                \r\n            registerProperty(_newOwnerName,_newOwnerAdhaar,area,district,state,sqFeet);\r\n        } else {                       \r\n            uint newSqFeet = sqFeet - _sellingSqFeet;           \r\n            registerProperty(_newOwnerName,_newOwnerAdhaar,area,district,state,_sellingSqFeet); // new owner\r\n            registerProperty(ownerName,ownerAdhaar,area,district,state,newSqFeet);  // original owner            \r\n        }\r\n        delete property[_propertyID];\r\n        emit soldProperty(_propertyID);\r\n    }\r\n    function getPropertyDetails(uint _propertyID) public view returns (string memory,uint64,string memory,string memory,string memory,uint) {\r\n        string memory ownerName = property[_propertyID].ownerName;\r\n        uint64 ownerAdhaar = property[_propertyID].onwerAdhaar;\r\n        string memory area = property[_propertyID].area;\r\n        string memory district = property[_propertyID].district;\r\n        string memory state = property[_propertyID].state;\r\n        uint sqFeet = property[_propertyID].sqFeet;\r\n        return (ownerName,ownerAdhaar,area,district,state,sqFeet);\r\n    }\r\n}",
  "sourcePath": "E:/Blockchain/Property/src/contracts/PropertyRegistration.sol",
  "compiler": {
    "name": "solc",
    "version": "0.5.16+commit.9c3226ce.Emscripten.clang"
  },
  "schemaVersion": "3.3.1",
  "updatedAt": "2021-03-17T17:12:07.857Z",
  "networkType": "ethereum",
  "devdoc": {
    "methods": {}
  },
  "userdoc": {
    "methods": {}
  }
}